:1000000012C02CC02BC02AC029C028C027C026C0BF
:1000100025C024C023C022C021C020C01FC01EC0D4
:100020001DC01CC01BC011241FBECFE5D4E0DEBF25
:10003000CDBF10E0A0E6B0E0ECECF0E002C005902F
:100040000D92A036B107D9F710E0A0E6B0E001C0EC
:100050001D92A036B107E1F702D036C0D1CF8FEFA5
:1000600087BB11BA9AE069E056E045E038E022E04B
:1000700080B38F70843011F498BBFACF80B38F7047
:10008000823011F428BBF4CF80B38F708A3011F422
:1000900018BAEECF80B38F70863011F438BBE8CF3A
:1000A00080B38F70813011F448BBE2CF80B38F7082
:1000B0008D3011F458BBDCCF80B38F70833011F4D6
:0C00C00068BBD6CF18BAD4CFF894FFCF9D
:00000001FF
